{
  "_format": "hh-sol-artifact-1",
  "contractName": "Bookings",
  "sourceName": "contracts/Bookings.sol",
  "abi": [
    {
      "inputs": [],
      "stateMutability": "nonpayable",
      "type": "constructor"
    },
    {
      "inputs": [
        {
          "internalType": "uint256",
          "name": "companyId",
          "type": "uint256"
        },
        {
          "internalType": "uint256",
          "name": "maxRooms",
          "type": "uint256"
        }
      ],
      "name": "addCompany",
      "outputs": [],
      "stateMutability": "nonpayable",
      "type": "function"
    },
    {
      "inputs": [
        {
          "internalType": "uint256",
          "name": "companyId",
          "type": "uint256"
        },
        {
          "internalType": "uint256",
          "name": "roomId",
          "type": "uint256"
        },
        {
          "internalType": "uint256",
          "name": "hour",
          "type": "uint256"
        }
      ],
      "name": "addReservation",
      "outputs": [],
      "stateMutability": "nonpayable",
      "type": "function"
    },
    {
      "inputs": [
        {
          "internalType": "uint256",
          "name": "companyId",
          "type": "uint256"
        },
        {
          "internalType": "uint256",
          "name": "roomId",
          "type": "uint256"
        },
        {
          "internalType": "uint256",
          "name": "hour",
          "type": "uint256"
        }
      ],
      "name": "cancelReservation",
      "outputs": [],
      "stateMutability": "nonpayable",
      "type": "function"
    },
    {
      "inputs": [
        {
          "internalType": "uint256",
          "name": "",
          "type": "uint256"
        }
      ],
      "name": "companyRooms",
      "outputs": [
        {
          "internalType": "uint256",
          "name": "companyId",
          "type": "uint256"
        },
        {
          "internalType": "uint256",
          "name": "maxRooms",
          "type": "uint256"
        }
      ],
      "stateMutability": "view",
      "type": "function"
    },
    {
      "inputs": [
        {
          "internalType": "address",
          "name": "",
          "type": "address"
        },
        {
          "internalType": "uint256",
          "name": "",
          "type": "uint256"
        },
        {
          "internalType": "uint256",
          "name": "",
          "type": "uint256"
        },
        {
          "internalType": "uint256",
          "name": "",
          "type": "uint256"
        }
      ],
      "name": "isRoomReserved",
      "outputs": [
        {
          "internalType": "bool",
          "name": "",
          "type": "bool"
        }
      ],
      "stateMutability": "view",
      "type": "function"
    },
    {
      "inputs": [],
      "name": "owner",
      "outputs": [
        {
          "internalType": "address",
          "name": "",
          "type": "address"
        }
      ],
      "stateMutability": "view",
      "type": "function"
    },
    {
      "inputs": [
        {
          "internalType": "uint256",
          "name": "",
          "type": "uint256"
        }
      ],
      "name": "registeredCompanies",
      "outputs": [
        {
          "internalType": "bool",
          "name": "",
          "type": "bool"
        }
      ],
      "stateMutability": "view",
      "type": "function"
    },
    {
      "inputs": [
        {
          "internalType": "uint256",
          "name": "",
          "type": "uint256"
        },
        {
          "internalType": "uint256",
          "name": "",
          "type": "uint256"
        },
        {
          "internalType": "uint256",
          "name": "",
          "type": "uint256"
        }
      ],
      "name": "reservationLengths",
      "outputs": [
        {
          "internalType": "uint256",
          "name": "",
          "type": "uint256"
        }
      ],
      "stateMutability": "view",
      "type": "function"
    },
    {
      "inputs": [
        {
          "internalType": "uint256",
          "name": "",
          "type": "uint256"
        },
        {
          "internalType": "uint256",
          "name": "",
          "type": "uint256"
        },
        {
          "internalType": "uint256",
          "name": "",
          "type": "uint256"
        },
        {
          "internalType": "uint256",
          "name": "",
          "type": "uint256"
        }
      ],
      "name": "reservations",
      "outputs": [
        {
          "internalType": "address",
          "name": "",
          "type": "address"
        }
      ],
      "stateMutability": "view",
      "type": "function"
    }
  ],
  "bytecode": "0x608060405234801561001057600080fd5b50336000806101000a81548173ffffffffffffffffffffffffffffffffffffffff021916908373ffffffffffffffffffffffffffffffffffffffff160217905550610eaa806100606000396000f3fe608060405234801561001057600080fd5b50600436106100935760003560e01c8063877e786711610066578063877e7867146101d85780638da5cb5b1461022e578063aa6e263f14610262578063b4ece0ee1461029a578063c0e0dd5c1461031057610093565b806303729b7f146100985780635a944a8e146101105780635e96b80d14610152578063782035a714610196575b600080fd5b6100f8600480360360808110156100ae57600080fd5b81019080803573ffffffffffffffffffffffffffffffffffffffff169060200190929190803590602001909291908035906020019092919080359060200190929190505050610359565b60405180821515815260200191505060405180910390f35b6101506004803603606081101561012657600080fd5b810190808035906020019092919080359060200190929190803590602001909291905050506103a2565b005b61017e6004803603602081101561016857600080fd5b81019080803590602001909291905050506107d8565b60405180821515815260200191505060405180910390f35b6101d6600480360360608110156101ac57600080fd5b810190808035906020019092919080359060200190929190803590602001909291905050506107f8565b005b610218600480360360608110156101ee57600080fd5b81019080803590602001909291908035906020019092919080359060200190929190505050610b63565b6040518082815260200191505060405180910390f35b610236610b95565b604051808273ffffffffffffffffffffffffffffffffffffffff16815260200191505060405180910390f35b6102986004803603604081101561027857600080fd5b810190808035906020019092919080359060200190929190505050610bb9565b005b6102e4600480360360808110156102b057600080fd5b8101908080359060200190929190803590602001909291908035906020019092919080359060200190929190505050610d65565b604051808273ffffffffffffffffffffffffffffffffffffffff16815260200191505060405180910390f35b61033c6004803603602081101561032657600080fd5b8101908080359060200190929190505050610dca565b604051808381526020018281526020019250505060405180910390f35b600560205283600052604060002060205282600052604060002060205281600052604060002060205280600052604060002060009350935050509054906101000a900460ff1681565b600115156001600085815260200190815260200160002060009054906101000a900460ff1615151461043c576040517f08c379a00000000000000000000000000000000000000000000000000000000081526004018080602001828103825260168152602001807f436f6d70616e7920646f6573206e6f742065786973740000000000000000000081525060200191505060405180910390fd5b600260008481526020019081526020016000206001015482106104c7576040517f08c379a00000000000000000000000000000000000000000000000000000000081526004018080602001828103825260138152602001807f526f6f6d20646f6573206e6f742065786973740000000000000000000000000081525060200191505060405180910390fd5b60011515600560003373ffffffffffffffffffffffffffffffffffffffff1673ffffffffffffffffffffffffffffffffffffffff16815260200190815260200160002060008581526020019081526020016000206000848152602001908152602001600020600083815260200190815260200160002060009054906101000a900460ff161515146105a3576040517f08c379a000000000000000000000000000000000000000000000000000000000815260040180806020018281038252602a815260200180610e28602a913960400191505060405180910390fd5b60005b600360008581526020019081526020016000206000848152602001908152602001600020600083815260200190815260200160002080549050811015610703573373ffffffffffffffffffffffffffffffffffffffff166003600086815260200190815260200160002060008581526020019081526020016000206000848152602001908152602001600020828154811061063d57fe5b9060005260206000200160009054906101000a900473ffffffffffffffffffffffffffffffffffffffff1673ffffffffffffffffffffffffffffffffffffffff1614156106f657600360008581526020019081526020016000206000848152602001908152602001600020600083815260200190815260200160002081815481106106c457fe5b9060005260206000200160006101000a81549073ffffffffffffffffffffffffffffffffffffffff0219169055610703565b80806001019150506105a6565b5060016004600085815260200190815260200160002060008481526020019081526020016000206000838152602001908152602001600020600082825403925050819055506000600560003373ffffffffffffffffffffffffffffffffffffffff1673ffffffffffffffffffffffffffffffffffffffff16815260200190815260200160002060008581526020019081526020016000206000848152602001908152602001600020600083815260200190815260200160002060006101000a81548160ff021916908315150217905550505050565b60016020528060005260406000206000915054906101000a900460ff1681565b600115156001600085815260200190815260200160002060009054906101000a900460ff16151514610892576040517f08c379a00000000000000000000000000000000000000000000000000000000081526004018080602001828103825260168152602001807f436f6d70616e7920646f6573206e6f742065786973740000000000000000000081525060200191505060405180910390fd5b6002600084815260200190815260200160002060010154821061091d576040517f08c379a00000000000000000000000000000000000000000000000000000000081526004018080602001828103825260138152602001807f526f6f6d20646f6573206e6f742065786973740000000000000000000000000081525060200191505060405180910390fd5b60001515600560003373ffffffffffffffffffffffffffffffffffffffff1673ffffffffffffffffffffffffffffffffffffffff16815260200190815260200160002060008581526020019081526020016000206000848152602001908152602001600020600083815260200190815260200160002060009054906101000a900460ff161515146109f9576040517f08c379a0000000000000000000000000000000000000000000000000000000008152600401808060200182810382526039815260200180610def6039913960400191505060405180910390fd5b6003600084815260200190815260200160002060008381526020019081526020016000206000828152602001908152602001600020339080600181540180825580915050600190039060005260206000200160009091909190916101000a81548173ffffffffffffffffffffffffffffffffffffffff021916908373ffffffffffffffffffffffffffffffffffffffff16021790555060016004600085815260200190815260200160002060008481526020019081526020016000206000838152602001908152602001600020600082825401925050819055506001600560003373ffffffffffffffffffffffffffffffffffffffff1673ffffffffffffffffffffffffffffffffffffffff16815260200190815260200160002060008581526020019081526020016000206000848152602001908152602001600020600083815260200190815260200160002060006101000a81548160ff021916908315150217905550505050565b600460205282600052604060002060205281600052604060002060205280600052604060002060009250925050505481565b60008054906101000a900473ffffffffffffffffffffffffffffffffffffffff1681565b600015156001600084815260200190815260200160002060009054906101000a900460ff16151514610c36576040517f08c379a0000000000000000000000000000000000000000000000000000000008152600401808060200182810382526023815260200180610e526023913960400191505060405180910390fd5b60008054906101000a900473ffffffffffffffffffffffffffffffffffffffff1673ffffffffffffffffffffffffffffffffffffffff163373ffffffffffffffffffffffffffffffffffffffff1614610cf7576040517f08c379a00000000000000000000000000000000000000000000000000000000081526004018080602001828103825260158152602001807f596f7520617265206e6f7420746865206f776e6572000000000000000000000081525060200191505060405180910390fd5b604051806040016040528083815260200182815250600260008481526020019081526020016000206000820151816000015560208201518160010155905050600180600084815260200190815260200160002060006101000a81548160ff0219169083151502179055505050565b60036020528360005260406000206020528260005260406000206020528160005260406000208181548110610d9657fe5b9060005260206000200160009350935050509054906101000a900473ffffffffffffffffffffffffffffffffffffffff1681565b6002602052806000526040600020600091509050806000015490806001015490508256fe596f7520616c726561647920686176652061207265736572766174696f6e20666f72207468697320726f6f6d20617420746869732074696d65596f7520646f6e277420686176652061207265736572766174696f6e20666f72207468697320726f6f6d436f6d70616e792068617320616c7265616479206265656e2072656769737465726564a26469706673582212206021ff462bfcb2bda65c08261100db03596fa635d86d752104dc416590103e3e64736f6c63430007030033",
  "linkReferences": {},
  "deployedLinkReferences": {}
}